:1000000085C20000A3C20000A1C200009FC2000080
:10001000D0C60000DDC60000EAC6000097C200009E
:1000200095C2000093C2000091C200008FC2000080
:100030008DC200008BC2000089C2000087C2000090
:1000400085C2000083C2000081C200007FC20000A0
:100050007DC2000003C6000079C2000077C2000024
:1000600075C2000073C2000071C200006FC20000C0
:100070006DC2000031C6000069C2000067C2000006
:1000800065C2000063C2000061C200005FC20000E0
:100090005DC200005BC2000059C2000057C20000F0
:1000A00055C2000053C2000051C200004FC2000000
:1000B0004DC200004BC2000049C2000047C2000010
:1000C00045C2000043C2000041C200003FC2000020
:1000D0003DC200003BC2000039C2000037C2000030
:1000E00035C20000084AD73B3BCE016E84BCBFFD41
:1000F000C12F3D6C74319ABD56833DDA3D00C77FF8
:1001000011BED9E4BB4C3E916BAAAABE0000008090
:100110003F0000407A10F35A00A0724E18090010F8
:10012000A5D4E80000E87648170000E40B5402006C
:1001300000CA9A3B000000E1F50500008096980097
:10014000000040420F000000A086010000001027C0
:1001500000000000E8030000000064000000000050
:100160000A00000000000100000000002C76D88882
:10017000DC674F0823DFC1DFAE59E1B1B796E5E395
:10018000E453C63AE651997696E8E6C28426EB89AE
:100190008C9B62ED407C6FFCEFBC9C9F40F2BAA54B
:1001A0006FA5F490055A2AF75C936B6CF9676DC1E3
:1001B0001BFCE0E40D47FEF520E6B500D0ED902EE7
:1001C0000300943577050080841E080000204E0A45
:1001D000000000C80C333333330F986E1283114183
:1001E000EF8D2114893BE65516CFFEE6DB18D1844E
:1001F0004B381BF77C1D901DA4BBE4242032847275
:100200005E228100C9F124ECA1E53D270000000039
:100210000000000000005F00000000000000070078
:100220000700000000147F147F14000000242A7FC0
:100230002A120000002313086462000000364955AA
:10024000225000000000050300000000001C2241B5
:10025000000000000041221C0000000000082A1CD1
:100260002A0800000008083E0808000000A06000FE
:100270000000000000080808080800000060600096
:10028000000000000020100804020000003E514958
:10029000453E00000000427F4000000000625149DE
:1002A0004946000000224149493600000018141256
:1002B0007F1000000027454545390000003C4A49B1
:1002C000493000000001710905030000003649496A
:1002D0004936000000064949291E00000000363654
:1002E000000000000000AC6C0000000000081422B8
:1002F00041000000001414141414000000412214E2
:10030000080000000002015109060000003249798E
:10031000413E0000007E0909097E0000007F494936
:1003200049360000003E414141220000007F41412A
:10033000221C0000007F494949410000007F090953
:1003400009010000003E414151720000007F080891
:10035000087F000000417F41000000000020404174
:100360003F010000007F081422410000007F404050
:1003700040400000007F020C027F0000007F040864
:10038000107F0000003E4141413E0000007F09090E
:1003900009060000003E4151215E0000007F09195E
:1003A0002946000000264949493200000001017F2A
:1003B00001010000003F4040403F0000001F20407E
:1003C000201F0000003F4038403F00000063140839
:1003D0001463000000030478040300000061514925
:1003E00045430000007F4141000000000002040876
:1003F000102000000041417F0000000000040201C5
:10040000020400000080808080800000000102045F
:10041000000000000020545454780000007F48443D
:1004200044380000003844442800000000384444A8
:10043000487F0000003854545418000000087E091A
:10044000020000000018A4A4A47C0000007F08049F
:100450000478000000007D00000000000080847D22
:1004600000000000007F10284400000000417F4091
:1004700000000000007C041804780000007C0804E0
:100480007C000000003844443800000000FC2424B4
:100490001800000000182424FC00000000007C0864
:1004A00004000000004854542400000000047F446D
:1004B00000000000003C40407C000000001C204088
:1004C000201C0000003C4030403C0000004428104C
:1004D00028440000001CA0A07C00000000446454DC
:1004E0004C440000000836410000000000007F007E
:1004F0000000000000413608000000000002010179
:1005000002010000000205050200000011241FBEC8
:10051000CFEFD1E2DEBFCDBF00E00CBF12E0A0E024
:10052000B2E0ECE6FAE100E00BBF02C007900D92EA
:10053000A633B107D9F724E0A6E3B2E001C01D92CB
:10054000A131B207E1F746D30C94340D59CDEAE757
:10055000F0E0908194609083ACE7B0E09C91906271
:100560009C93AEE7B0E09C9191609C93ABE7B0E0C8
:100570009C9193609C93908190629083908190680D
:100580009083882319F0808188608083089581B1E9
:10059000816081B982B1816082B92FEF83ED90E3F0
:1005A000215080409040E1F700C0000082E180933C
:1005B000B800E9EBF0E080818C7F808385E0809358
:1005C000BC00089594EA9093BC009091BC009923DC
:1005D000E4F79091B900987F983091F48093BB0034
:1005E00084E88093BC008091BC008823E4F780916C
:1005F000B900887F883131F0803231F482E008958B
:1006000080E0089581E0089583E008958093BB0021
:1006100084E88093BC008091BC008823E4F780913B
:10062000B900887F883221F0803321F481E0089579
:1006300080E0089582E0089584E98093BC00809171
:10064000BC0084FDFCCF089580930002089520E053
:1006500030E056C08091EC028130C9F028F0823041
:1006600049F18330D1F14AC0A901440F551FFA0165
:10067000EB58FC4F61E070E071836083FA01EB504E
:10068000FD4F118210828F5F8093EC0237C0A90169
:10069000440F551FFA01EB58FC4F11821082FA01EA
:1006A000EB50FD4F61E070E0718360838F5F80935A
:1006B000EC0224C0A901440F551FFA01EB58FC4F6E
:1006C0006FEF7FEF71836083FA01EB50FD4F118272
:1006D00010828F5F8093EC0211C0C901880F991FAF
:1006E000FC01EB58FC4F11821082FC01EB50FD4FD6
:1006F0004FEF5FEF518340831092EC022F5F3F4F2B
:10070000203431050CF4A6CF089584B1806484B9F7
:1007100085B18F7B85B98DB18F7D8DB98DB18F7E80
:100720008DB98AB1877F8AB98EB180628EB98EB158
:1007300080618EB98BB188608BB9E9E6F0E0808189
:10074000806C8083EAE6F0E080818F6080838DB3E7
:1007500088638DBB789488E78093010218DF62D3A9
:10076000F5D3B2D340E050E062E070E082E092E086
:10077000BFD340E050E063E070E086E092E0B8D3A1
:1007800040E050E061E070E08DE092E0B1D340E005
:1007900050E065E070E083E192E0AAD318D457CF2F
:1007A0000895CF92DF92EF92FF920F931F93CF9312
:1007B000DF93CDB7DEB7C456D1090FB6F894DEBFCC
:1007C0000FBECDBFD42EC22E9E012F5F3F4F7901A9
:1007D00024E6F70111922A95E9F7870122E044E027
:1007E000D6D64C2D50E06D2D70E0C70181D3CC5989
:1007F000DF4F0FB6F894DEBF0FBECDBFDF91CF91B4
:100800001F910F91FF90EF90DF90CF9008954F923E
:100810005F926F927F928F929F92AF92BF92CF9290
:10082000DF92EF92FF921F93CF93DF938091EB02C1
:10083000813009F0BFC19CC0FE01EE0FFF1FEB58D5
:10084000FC4F408151812091F50381E090E022230B
:1008500011F080E090E0FC010024F695E795079404
:10086000F695E7950794FE2FE02DED59FD4FEC0F1F
:10087000FD1F808190E09C01220F331F220F331F48
:10088000820F931F489F9001499F300D589F300D54
:100890001124332314F421503F4F632F732F770F0C
:1008A000770B072E000C880B990BD8D49B01AC0159
:1008B0006091F1027091F2028091F3029091F40242
:1008C00099D36093F1027093F2028093F3029093B4
:1008D000F402FE01EE0FFF1FEB50FD4F40815181EE
:1008E0002091F50381E090E0222311F080E090E078
:1008F000FC010024F695E7950794F695E795079493
:10090000FE2FE02DED59FD4FEC0FFD1F808190E093
:100910009C01220F331F220F331F820F931F489F0A
:100920009001499F300D589F300D1124332314F44A
:1009300021503F4F632F732F770F770B072E000C3B
:10094000880B990B8BD49B01AC016091ED027091E7
:10095000EE028091EF029091F0024CD36093ED0291
:100960007093EE028093EF029093F002219602C002
:10097000C0E0D0E0C034D1050CF45ECFC090ED02F1
:10098000D090EE02E090EF02F090F002F7FAF094CF
:10099000F7F8F094C092ED02D092EE02E092EF02EE
:1009A000F092F00226E636E646E65FE36091E30267
:1009B0007091E4028091E5029091E6022BD54B0103
:1009C0005C01A7019601C701B60124D56B017C012A
:1009D0006091F1027091F2028091F3029091F40221
:1009E0009B01AC0117D52B013C01A3019201C7016A
:1009F000B60100D376D52DEC3CEC4CEC5DE30AD58A
:100A000020E030E040E85DE305D59B01AC01C50185
:100A1000B401F0D26093E3027093E4028093E502A4
:100A20009093E60227E042E0BCDEC090ED02D09059
:100A3000EE02E090EF02F090F00220E030E0A90139
:100A4000C701B6019DD3811117C06091F102709169
:100A5000F2028091F3029091F40220E030E0A901CB
:100A60008FD3811109C01092E7021092E802109210
:100A7000E9021092EA022CC026E636E646E65FE37B
:100A80006091E7027091E8028091E9029091EA0298
:100A9000C1D44B015C012091F1023091F2024091EE
:100AA000F3025091F402C701B60117D323EB38E5E6
:100AB00047EB50E4AFD49B01AC01C501B4019AD21D
:100AC0006093E7027093E8028093E9029093EA0250
:100AD00010913A02E12FF0E0EE0FFF1FEE0FFF1F23
:100AE000E55CFD4F8091E7029091E802A091E90258
:100AF000B091EA0280839183A283B3831F5F109336
:100B00003A02C0E0D0E01DC0FE01EE0FFF1FEE0F65
:100B1000FF1FE55CFD4F208131814281538160914F
:100B2000360270913702809138029091390262D278
:100B300060933602709337028093380290933902A3
:100B40002196CA30D10504F320E030E040E251E4C0
:100B5000609136027091370280913802909139028B
:100B600013D36093360270933702809338029093C8
:100B700039021A3011F410923A0227E043E011DEF4
:100B80001092F1021092F2021092F3021092F4020B
:100B90001092ED021092EE021092EF021092F0020B
:100BA00010923602109237021092380210923902D7
:100BB0001092EB02DF91CF911F91FF90EF90DF90A9
:100BC000CF90BF90AF909F908F907F906F905F90ED
:100BD0004F9008959ADD80910002813039F008F439
:100BE0003AC0823021F1833061F1F5CF47E050E027
:100BF00061E070E08DE192E07BD109DE80910F042D
:100C0000813021F482E020DD10920F0480910E04E7
:100C1000813021F483E018DD10920E0480911004DD
:100C20008130C9F680E010DD10921004D4CF47E087
:100C300050E061E070E085E292E05AD181E004DDAD
:100C4000CACF47E050E061E070E08FE292E050D11F
:100C500081E0FADCC0CF81E0F7DCBDCF1F920F92BC
:100C60000FB60F9211240BB60F922F933F934F9311
:100C70005F936F937F938F939F93AF93BF93EF9304
:100C8000FF938091F903813021F08F5F8093F90306
:100C900010C01092F90395B180E4892785B92E9987
:100CA00008C08091F803811104C081E08093F803AB
:100CB0004EDCFF91EF91BF91AF919F918F917F910A
:100CC0006F915F914F913F912F910F900BBE0F90BD
:100CD0000FBE0F901F9018951F920F920FB60F9294
:100CE00011240BB60F922F933F938F939F93EF9303
:100CF000FF938091F6039091F703803491059CF463
:100D0000E091F5032091790030E4E39FF001112494
:100D1000ED59FD4FE80FF91F208301969093F703DB
:100D20008093F60339C08091EB028823B1F01092D2
:100D3000F7031092F603E091F5038091790090E4B7
:100D4000E99FF0011124ED59FD4F808381E090E08F
:100D50009093F7038093F6031FC09091F50381E011
:100D6000911180E08093F50381E08093EB02109273
:100D7000F7031092F603E091F5038091790030E4D7
:100D8000E39FF0011124ED59FD4F808381E090E055
:100D90009093F7038093F603FF91EF919F918F91CA
:100DA0003F912F910F900BBE0F900FBE0F901F9091
:100DB00018951F920F920FB60F9211248F9381E016
:100DC00080930F048F910F900FBE0F901F90189576
:100DD0001F920F920FB60F9211248F9381E0809390
:100DE0000E048F910F900FBE0F901F9018951F92B9
:100DF0000F920FB60F9211248F9381E0809310040D
:100E00008F910F900FBE0F901F901895CF93C82F02
:100E100080910102D7DB80E0F9DB8C2FF7DB0CDC63
:100E2000CF9108958EEAF2DF85EDF0DF80E8EEDF06
:100E300088EAECDF8FE3EADF83EDE8DF80E0E6DFDE
:100E400080E4E4DF8DE8E2DF84E1E0DF80E2DEDF02
:100E500080E0DCDF81EADADF88ECD8DF8AEDD6DFFC
:100E600082E1D4DF81E8D2DF8FECD0DF89EDCEDF05
:100E700081EFCCDF8BEDCADF80E4C8DF84EAC6DF18
:100E800086EAC4DF8FEAC2CF0895CF93C82F80913E
:100E9000010298DB80E4BADB8C2FB8DBCDDBCF918D
:100EA0000895CF93C62F8055B1DF8C2F880F880F00
:100EB000880F8870ABDF8C2F90E0969587958F70A8
:100EC000805FA4DFCF910895CF93DF93D0E00BC074
:100ED00060E08D2FE6DFC0E003C080E0D6DFCF5FAB
:100EE000CC23DCF7DF5FD83098F3DF91CF91089502
:100EF0000F931F93CF93DF93EC01862F062F642F60
:100F0000D0DF1CC08A3029F460E081E0800FC9DFA7
:100F1000219610E010C0E881F0E0B097EE0FFF1FBF
:100F2000EE0FFF1FEE0FFF1FE45FFD4FE10FF11DFE
:100F30008491ABDF1F5F183070F321968881811197
:100F4000E1CFDF91CF911F910F910895DF92EF9242
:100F5000FF920F931F93CF93DF93B6DFE12CF12C19
:100F60006894DD24D5F827C060E08E2D9ADF00E07C
:100F700010E019C0F801ED0DF11DB097EE0FFF1F45
:100F8000EE0FFF1FEE0FFF1FE45FFD4FEC0FFD1F85
:100F900084917BDF219602C0C0E0D0E0C830D1054B
:100FA0004CF30F5F1F4F00311105B4F380E1D80EF1
:100FB0008FEFE81AF80A86E0E816F104ACF2DF9148
:100FC000CF911F910F91FF90EF90DF90089584B122
:100FD000806884B984B5826484BD85B5826085BD2E
:100FE00016BC89EF87BDEEE6F0E0808182608083E9
:100FF00008955058BB27AA270ED0CBC1BCD130F0E2
:10100000C1D120F031F49F3F11F41EF48CC10EF4D5
:10101000E095E7FB82C1E92FCDD180F3BA176207D3
:1010200073078407950718F071F49EF5E5C10EF477
:10103000E0950B2EBA2FA02D0B01B90190010C01E8
:10104000CA01A0011124FF27591B99F0593F50F400
:10105000503E68F11A16F040A22F232F342F442758
:10106000585FF3CF469537952795A795F040539550
:10107000C9F77EF41F16BA0B620B730B840BBAF020
:101080009150A1F0FF0FBB1F661F771F881FC2F78B
:101090000EC0BA0F621F731F841F48F4879577959F
:1010A0006795B795F7959E3F08F0B3CF9395880F56
:1010B00008F09927EE0F9795879508955CD158F021
:1010C00080E891E009F49EEF5DD128F040E851E01E
:1010D00059F45EEF09C027C18FC1E92FE0786AD1CA
:1010E00068F3092E052AC1F3261737074807590761
:1010F00038F00E2E07F8E02569F0E025E0640AC01C
:10110000EF6307F8009407FADB01B9019D01DC01E8
:10111000CA01AD01EF9347D03CD10AD05F9155236E
:1011200031F02BED3FE049E450FD49EC63CF0895E9
:10113000DF93DD27B92FBF7740E85FE31616170668
:1011400048075B0710F4D92F5ED19F938F937F934D
:101150006F9305D2E4EEF0E0E9D01BD12F913F91DF
:101160004F915F9163D1DD2349F09058A2EA2AEDB7
:101170003FE049EC5FE3D0785D274DDFDF9109C1A7
:10118000A8D008F481E008950CD003C1FBD040F052
:10119000F2D030F021F45F3F19F0BFC051112DC1E2
:1011A000C2C008D198F39923C9F35523B1F3951B15
:1011B000550BBB27AA2762177307840738F09F5F78
:1011C0005F4F220F331F441FAA1FA9F333D00E2EE7
:1011D0003AF0E0E830D091505040E695001CCAF754
:1011E00029D0FE2F27D0660F771F881FBB1F261719
:1011F00037074807AB07B0E809F0BB0B802DBF01EC
:10120000FF2793585F4F2AF09E3F510568F085C035
:10121000F4C05F3FECF3983EDCF3869577956795D5
:10122000B795F7959F5FC9F7880F911D969587959C
:1012300097F90895E1E0660F771F881FBB1F6217BB
:1012400073078407BA0720F0621B730B840BBA0B79
:10125000EE1F88F7E0950895E89409C097FB3EF4E7
:1012600090958095709561957F4F8F4F9F4F9923F3
:10127000A9F0F92F96E9BB279395F6958795779571
:101280006795B795F111F8CFFAF4BB0F11F460FF31
:101290001BC06F5F7F4F8F4F9F4F16C0882311F089
:1012A00096E911C0772321F09EE8872F762F05C09D
:1012B000662371F096E8862F70E060E02AF09A9538
:1012C000660F771F881FDAF7880F9695879597F92D
:1012D0000895990F0008550FAA0BE0E8FEEF1616C7
:1012E0001706E807F907C0F012161306E407F5071A
:1012F00098F0621B730B840B950B39F40A2661F08E
:10130000232B242B252B21F408950A2609F4A14030
:10131000A6958FEF811D811D089597F99F6780E83D
:1013200070E060E008959FEF80EC0895DF93CF9325
:101330001F930F93FF92EF92DF927B018C016894D1
:1013400005C0DA2EEF0172D0FE01E894A591259137
:10135000359145915591AEF3EF015DDEFE019701A8
:10136000A801DA9479F7DF90EF90FF900F911F9129
:10137000CF91DF91089500240A94161617061806D7
:101380000906089500240A94121613061406050689
:101390000895092E0394000C11F4882352F0BB0F1A
:1013A00040F4BF2B11F460FF04C06F5F7F4F8F4F7D
:1013B0009F4F089557FD9058440F551F59F05F3FB8
:1013C00071F04795880F97FB991F61F09F3F79F067
:1013D00087950895121613061406551FF2CF4695E9
:1013E000F1DF08C0161617061806991FF1CF86956B
:1013F0007105610508940895E894BB27662777274F
:10140000CB0197F908959B01AC0160E070E080E8A2
:101410009FE3BACE0BD0BDCFAEDF28F0B3DF18F01C
:10142000952309F07ACF7FCF1124E7CFC3DFA0F354
:10143000959FD1F3950F50E0551F629FF001729F69
:10144000BB27F00DB11D639FAA27F00DB11DAA1F88
:10145000649F6627B00DA11D661F829F2227B00DD5
:10146000A11D621F739FB00DA11D621F839FA00D60
:10147000611D221F749F3327A00D611D231F849FB0
:10148000600D211D822F762F6A2F11249F57504007
:101490008AF0E1F088234AF0EE0FFF1FBB1F661FA2
:1014A000771F881F91505040A9F79E3F510570F05B
:1014B00034CFA3CF5F3FECF3983EDCF3869577956E
:1014C0006795B795F795E7959F5FC1F7FE2B880F56
:1014D000911D9695879597F9089511F40EF423CFF1
:1014E00041C070DFD0F39923D9F3CEF39F57550B4A
:1014F00087FF46D00024A0E640EA90018058569528
:10150000979528F4805C660F771F881F20F02617B8
:101510003707480730F4621B730B840B20293129ED
:101520004A2BA69517940794202531254A2758F76A
:10153000660F771F881F20F026173707480730F4FB
:10154000620B730B840B200D311D411DA09581F79B
:10155000B901842F9158880F9695879508959B011E
:10156000AC0158CF9F3F31F0915020F4879577958B
:101570006795B795880F911D9695879597F908956A
:1015800091505040660F771F881FD2F70895EF9251
:101590000F931F93CF93DF93E80147FD02C034E020
:1015A00001C034E1042E000C550B57FF03C05195C8
:1015B00041955109E32E022F242FAE0107D0CE0111
:1015C000DF91CF911F910F91EF9008958F929F928D
:1015D000AF92BF92CF92DF92EF92FF920F931F9341
:1015E000CF93DF93CDB7DEB729970FB6F894DEBF60
:1015F0000FBECDBF6A01122FB02E2BE3201720F0B3
:10160000FF24F394F00E02C02CE3F22E0F2D27E0FE
:10161000AE014F5F5F4F50D1BC014981842F89706B
:10162000813031F0E1FC06C0E0FE06C090E205C06A
:101630009DE203C09BE201C090E05E2D507143FF2C
:101640003CC0911102C083E001C084E0811718F40E
:10165000212F281B01C020E051110BC0F601822F61
:1016600030E2882319F031938150FBCFC20ED11C98
:1016700020E0992329F0D6019C93F60131966F0161
:10168000C6010396E2FE0AC03EE4D6013C9341E463
:1016900011964C93119712963C9306C03EE6F601C4
:1016A000308341E641833283FC01322F40E2332311
:1016B00009F442C041933150FACF42FF44C0911126
:1016C00002C083E001C084E0811718F4212F281B99
:1016D00001C020E051110BC0F601822F30E28823B7
:1016E00019F031938150FBCFC20ED11C20E0992319
:1016F00029F0D6019C93F60131966F01C60103963D
:10170000E2FE0BC039E4D6013C933EE411963C93D3
:10171000119736E412963C9307C039E6F601308300
:101720003EE6318336E63283FC01322F40E233233A
:1017300019F041933150FBCFFC01E20FF11D1082F3
:101740008EEF9FEFA6C021E030E0911102C020E0B3
:1017500030E0161617061CF4FB01319602C0E1E0DA
:10176000F0E02E0F3F1FBB2021F0EB2DF0E0319673
:1017700002C0E0E0F0E02E0F3F1FE12FF0E02E1757
:101780003F071CF4121B212F01C020E08E2D887111
:1017900059F4F601822F30E2882319F031938150F9
:1017A000FBCFC20ED11C20E0992329F0D6019C93D7
:1017B000F60131966F0151110BC0F601822F90E3B3
:1017C000882319F091938150FBCFC20ED11C20E0E9
:1017D0000F2D060F9A81342F307144FF03C09133CF
:1017E00009F40150101624F4093018F008E001C083
:1017F00001E0AB0177FF02C040E050E0FB01E41BD9
:10180000F50BA1E0B0E0AC0FBD1FEA0FFB1F8EE2AD
:10181000A82E4B01801A91080B2D10E0119501950F
:1018200011094F3FBFEF5B0721F4D601AC9211962F
:101830006D01641775072CF08416950614F48181E8
:1018400001C080E3415051093196D60111967D01C6
:101850004017510724F0D6018C936701E2CF64173B
:10186000750739F4963320F4953319F4311101C01A
:1018700081E3F6018083F701822F90E2882319F03B
:1018800091938150FBCFF701E20FF11D108280E0B0
:1018900090E029960FB6F894DEBF0FBECDBFDF9162
:1018A000CF911F910F91FF90EF90DF90CF90BF905D
:1018B000AF909F908F900895283008F027E033274D
:1018C000DA01990F311D87FD916000966105710560
:1018D00039F432602E5F3D9330E32A95E1F70895A5
:1018E0009F3F30F080387105610509F03C5F3C5F37
:1018F0003D93913008F08068911DDF93CF931F9343
:101900000F93FF92EF92192F987F9695E92F969556
:101910009695E90FFF27E459FE4F99273327EE24C8
:10192000FF24A701E70105900894079428F4360FD7
:10193000E71EF81E491F511D660F771F881F991F4C
:101940000694A1F70590079428F4E70EF81E491FA6
:10195000561FC11D770F881F991F661F0694A1F798
:101960000590079428F4F80E491F561FC71FD11D74
:10197000880F991F661F771F0694A1F7059007949B
:1019800020F4490F561FC71FD81F990F661F771FD6
:10199000881F0694A9F784911095177041F0D69589
:1019A000C79557954795F794E7941A95C1F7E2E1E3
:1019B000F1E0689415901591359165919591059098
:1019C0007FE27395E118F10A430B560BC90BD0095E
:1019D000C0F7E10CF11E431F561FC91FD01D7EF436
:1019E000703311F48A95E6CFE894015030F0080F77
:1019F0000AF40027021708F4202F2395022F7A33C8
:101A000028F079E37D932A95E9F710C07D932A9514
:101A100089F6069497956795379517951794E11869
:101A2000F10A430B560BC90BD00998F023957E9110
:101A300073957A3308F070E37C932013B8F77E91A6
:101A400070617D9330F0839571E37D9370E32A9507
:101A5000E1F71124EF90FF900F911F91CF91DF914B
:0C1A6000992787FD90950895F894FFCF1A
:101A6C000178414D5000416E676C653A004D6F64D2
:101A7C00653A004D6174657269616C3A0052756E1D
:101A8C006E696E670043616C6962726174650053C4
:061A9C00746F726500008A
:00000001FF
