S012000041544D4547415F4453502E737265631D
S113000085C20000A3C20000A1C200009FC200007C
S11300109DC200009BC2000099C2000097C200006C
S113002095C2000093C2000091C200008FC200007C
S11300308DC200008BC2000089C2000087C200008C
S113004085C2000083C2000081C200007FC200009C
S11300507DC200008FC5000079C2000077C2000095
S113006075C2000073C2000071C200006FC20000BC
S11300706DC20000BDC5000069C2000067C2000077
S113008065C2000063C2000061C200005FC20000DC
S11300905DC200005BC2000059C2000057C20000EC
S11300A055C2000053C2000051C200004FC20000FC
S11300B04DC200004BC2000049C2000047C200000C
S11300C045C2000043C2000041C200003FC200001C
S11300D03DC200003BC2000039C2000037C200002C
S11300E035C20000084AD73B3BCE016E84BCBFFD3D
S11300F0C12F3D6C74319ABD56833DDA3D00C77FF4
S113010011BED9E4BB4C3E916BAAAABE000000808C
S11301103F0000407A10F35A00A0724E18090010F4
S1130120A5D4E80000E87648170000E40B54020068
S113013000CA9A3B000000E1F50500008096980093
S1130140000040420F000000A086010000001027BC
S113015000000000E803000000006400000000004C
S11301600A00000000000100000000002C76D8887E
S1130170DC674F0823DFC1DFAE59E1B1B796E5E391
S1130180E453C63AE651997696E8E6C28426EB89AA
S11301908C9B62ED407C6FFCEFBC9C9F40F2BAA547
S11301A06FA5F490055A2AF75C936B6CF9676DC1DF
S11301B01BFCE0E40D47FEF520E6B500D0ED902EE3
S11301C00300943577050080841E080000204E0A41
S11301D0000000C80C333333330F986E128311417F
S11301E0EF8D2114893BE65516CFFEE6DB18D1844A
S11301F04B381BF77C1D901DA4BBE4242032847271
S11302005E228100C9F124ECA1E53D270000000035
S11302100000000000005F00000000000000070074
S11302200700000000147F147F14000000242A7FBC
S11302302A120000002313086462000000364955A6
S1130240225000000000050300000000001C2241B1
S1130250000000000041221C0000000000082A1CCD
S11302602A0800000008083E0808000000A06000FA
S11302700000000000080808080800000060600092
S1130280000000000020100804020000003E514954
S1130290453E00000000427F4000000000625149DA
S11302A04946000000224149493600000018141252
S11302B07F1000000027454545390000003C4A49AD
S11302C04930000000017109050300000036494966
S11302D04936000000064949291E00000000363650
S11302E0000000000000AC6C0000000000081422B4
S11302F041000000001414141414000000412214DE
S1130300080000000002015109060000003249798A
S1130310413E0000007E0909097E0000007F494932
S113032049360000003E414141220000007F414126
S1130330221C0000007F494949410000007F09094F
S113034009010000003E414151720000007F08088D
S1130350087F000000417F41000000000020404170
S11303603F010000007F081422410000007F40404C
S113037040400000007F020C027F0000007F040860
S1130380107F0000003E4141413E0000007F09090A
S113039009060000003E4151215E0000007F09195A
S11303A02946000000264949493200000001017F26
S11303B001010000003F4040403F0000001F20407A
S11303C0201F0000003F4038403F00000063140835
S11303D01463000000030478040300000061514921
S11303E045430000007F4141000000000002040872
S11303F0102000000041417F0000000000040201C1
S1130400020400000080808080800000000102045B
S1130410000000000020545454780000007F484439
S113042044380000003844442800000000384444A4
S1130430487F0000003854545418000000087E0916
S1130440020000000018A4A4A47C0000007F08049B
S11304500478000000007D00000000000080847D1E
S113046000000000007F10284400000000417F408D
S113047000000000007C041804780000007C0804DC
S11304807C000000003844443800000000FC2424B0
S11304901800000000182424FC00000000007C0860
S11304A004000000004854542400000000047F4469
S11304B000000000003C40407C000000001C204084
S11304C0201C0000003C4030403C00000044281048
S11304D028440000001CA0A07C00000000446454D8
S11304E04C440000000836410000000000007F007A
S11304F00000000000413608000000000002010175
S113050002010000000205050200000011241FBEC4
S1130510CFEFD1E2DEBFCDBF00E00CBF12E0A0E020
S1130520B2E0ECEAF8E100E00BBF02C007900D92E4
S1130530AE34B107D9F723E0AEE4B2E001C01D92B6
S1130540AC37B207E1F739D10C94540C59CDEAE732
S1130550F0E0908194609083ACE7B0E09C9190626D
S11305609C93AEE7B0E09C9191609C93ABE7B0E0C4
S11305709C9193609C939081906290839081906809
S11305809083882319F0808188608083089581B1E5
S1130590816081B982B1816082B92FEF83ED90E3EC
S11305A0215080409040E1F700C0000082E1809338
S11305B0B800E9EBF0E080818C7F808385E0809354
S11305C0BC00089594EA9093BC009091BC009923D8
S11305D0E4F79091B900987F983091F48093BB0030
S11305E084E88093BC008091BC008823E4F7809168
S11305F0B900887F883131F0803231F482E0089587
S113060080E0089581E0089583E008958093BB001D
S113061084E88093BC008091BC008823E4F7809137
S1130620B900887F883221F0803321F481E0089575
S113063080E0089582E0089584E98093BC0080916D
S1130640BC0084FDFCCF089520E030E056C08091CA
S113065060028130C9F028F0823049F18330D1F151
S11306604AC0A901440F551FFA01EF51FD4F61E043
S113067070E071836083FA01EF59FD4F118210829B
S11306808F5F8093600237C0A901440F551FFA01A0
S1130690EF51FD4F11821082FA01EF59FD4F61E0D5
S11306A070E0718360838F5F8093600224C0A9012E
S11306B0440F551FFA01EF51FD4F6FEF7FEF718328
S11306C06083FA01EF59FD4F118210828F5F80938E
S11306D0600211C0C901880F991FFC01EF51FD4F41
S11306E011821082FC01EF59FD4F4FEF5FEF5183F0
S11306F04083109260022F5F3F4F203431050CF489
S1130700A6CF0895789484B1806484B984B180625A
S113071084B985B18F7D85B985B18F7B85B988E72B
S11307208093410234DF9FD232D3EFD240E050E0D5
S113073061E070E082E492E0FCD240E050E062E0EC
S113074070E086E492E0F5D263D37ECF0895CF9231
S1130750DF92EF92FF920F931F93CF93DF93CDB766
S1130760DEB7C456D1090FB6F894DEBF0FBECDBFB5
S1130770D42EC22E9E012F5F3F4F790124E6F7014C
S113078011922A95E9F7870122E044E020D64C2D06
S113079050E06D2D70E0C701CCD2CC59DF4F0FB6BD
S11307A0F894DEBF0FBECDBFDF91CF911F910F91A3
S11307B0FF90EF90DF90CF900895A4DF80914002E6
S11307C08130E1F7809167038130C1F71BC1C0918B
S11307D06002C13009F447C038F0C23009F482C065
S11307E0C33009F4BEC0FAC0F801E050FE4F808166
S11307F090E09C01220F331F220F331F820F931F9F
S11308006FEF70E0BDD5072E000C880B990B41D417
S11308109B01AC0160915202709153028091540289
S11308209091550208D360935202709353028093BF
S113083054029093550220E030E0A90160914E02E9
S113084070914F028091500290915102F4D26093C2
S11308504E0270934F028093500290935102CF5FE7
S1130860C0936002BBC020E030E0A9016091520255
S1130870709153028091540290915502DCD260939E
S11308805202709353028093540290935502F801DC
S1130890E050FE4F808190E09C01220F331F220F15
S11308A0331F820F931F6FEF70E06AD5072E000C81
S11308B0880B990BEED39B01AC0160914E027091B1
S11308C04F028091500290915102B5D260934E0232
S11308D070934F028093500290935102CF5FC09364
S11308E060027CC0F801E050FE4F808190E09C01E2
S11308F0220F331F220F331F820F931F6FEF70E0FD
S11309003FD5072E000C880B990BC3D39B01AC0178
S11309106091520270915302809154029091550259
S113092089D260935202709353028093540290933D
S1130930550220E030E0A90160914E0270914F020F
S1130940809150029091510276D260934E0270933E
S11309504F028093500290935102CF5FC093600284
S11309603DC020E030E0A901609152027091530231
S113097080915402909155025ED26093520270931A
S113098053028093540290935502F801E050FE4FB5
S1130990808190E09C01220F331F220F331F820FAE
S11309A0931F6FEF70E0ECD4072E000C880B990BAB
S11309B070D39B01AC0160914E0270914F02809103
S11309C050029091510236D260934E0270934F02BE
S11309D080935002909351021092600280914E02D3
S11309E090914F02A0915002B0915102B05880935F
S11309F04E0290934F02A0935002B09351020F5FA6
S1130A001F4F02C000E010E0003411050CF4DFCEEB
S1130A1080915602909157028A30910509F092C054
S1130A206091520270915302809154029091550248
S1130A3027E045E08CDE60914E0270914F02809178
S1130A4050029091510227E046E081DE26E636E628
S1130A5046E65FE3609158027091590280915A0210
S1130A6090915B02CED36B017C0160914E02709138
S1130A704F0280915002909151029B01AC01C1D36D
S1130A804B015C01609152027091530280915402B7
S1130A90909155029B01AC01B4D39B01AC01C501FB
S1130AA0B401C9D115D42DEC3CEC4CEC5DE3A9D3D5
S1130AB09B01AC01C701B601BED16093580270938B
S1130AC0590280935A0290935B0227E041E03FDE93
S1130AD026E636E646E65FE360915C0270915D02CD
S1130AE080915E0290915F028CD36B017C01209116
S1130AF05202309153024091540250915502609138
S1130B004E0270914F02809150029091510206D290
S1130B1023EB38E547EB50E474D39B01AC01C701E8
S1130B20B60189D160935C0270935D0280935E028A
S1130B3090935F0227E042E00ADE1092570210927F
S1130B40560205C001969093570280935602109264
S1130B5052021092530210925402109255021092B3
S1130B604E0210924F0210925002109251021092B3
S1130B70670324CE1F920F920FB60F9211240BB667
S1130B800F922F933F934F935F936F937F938F9322
S1130B909F93AF93BF93EF93FF938091660383304A
S1130BA021F08F5F8093660310C01092660395B1A5
S1130BB080E4892785B92E9908C080916503811145
S1130BC004C081E080936503C2DCFF91EF91BF9183
S1130BD0AF919F918F917F916F915F914F913F91D1
S1130BE02F910F900BBE0F900FBE0F901F90189572
S1130BF01F920F920FB60F9211242F938F939F93EE
S1130C008091790090E090936403809363038091D2
S1130C106103909162038034910554F42091670339
S1130C20211106C00196909362038093610307C06B
S1130C3081E08093670310926203109261039F9195
S1130C408F912F910F900FBE0F901F901895CF93F7
S1130C50C82F80914102B6DC80E0D8DC8C2FD6DC32
S1130C60EBDCCF9108958EEAF2DF85EDF0DF80E8CA
S1130C70EEDF88EAECDF8FE3EADF83EDE8DF80E094
S1130C80E6DF80E4E4DF8DE8E2DF84E1E0DF80E2B8
S1130C90DEDF80E0DCDF81EADADF88ECD8DF8AEDB2
S1130CA0D6DF82E1D4DF81E8D2DF8FECD0DF89EDBB
S1130CB0CEDF81EFCCDF8BEDCADF80E4C8DF84EACE
S1130CC0C6DF86EAC4DF8FEAC2CF0895CF93C82F68
S1130CD08091410277DC80E499DC8C2F97DCACDCDA
S1130CE0CF910895CF93C62F8055B1DF8C2F880FF5
S1130CF0880F880F8870ABDF8C2F90E096958795CE
S1130D008F70805FA4DFCF910895CF93DF93D0E0FD
S1130D100BC060E08D2FE6DFC0E003C080E0D6DFCB
S1130D20CF5FCC23DCF7DF5FD83098F3DF91CF912E
S1130D3008950F931F93CF93DF93EC01862F062F13
S1130D40642FD0DF1CC08A3029F460E081E0800F7A
S1130D50C9DF219610E010C0E881F0E0B097EE0FF3
S1130D60FF1FEE0FFF1FEE0FFF1FE45FFD4FE10FAC
S1130D70F11D8491ABDF1F5F183070F321968881D9
S1130D808111E1CFDF91CF911F910F910895DF92EF
S1130D90EF92FF920F931F93CF93DF93B6DFE12C73
S1130DA0F12C6894DD24D5F827C060E08E2D9ADFFD
S1130DB000E010E019C0F801ED0DF11DB097EE0F41
S1130DC0FF1FEE0FFF1FEE0FFF1FE45FFD4FEC0F41
S1130DD0FD1F84917BDF219602C0C0E0D0E0C830C3
S1130DE0D1054CF30F5F1F4F00311105B4F380E1BF
S1130DF0D80E8FEFE81AF80A86E0E816F104ACF290
S1130E00DF91CF911F910F91FF90EF90DF900895A4
S1130E1084B1806884B984B5826484BD85B58260F8
S1130E2085BD16BC8CE787BDEEE6F0E0808182606C
S1130E30808308955058BB27AA270ED0A1C192D110
S1130E4030F097D120F031F49F3F11F41EF462C1C9
S1130E500EF4E095E7FB58C1E92FA3D180F3BA174C
S1130E60620773078407950718F071F49EF5BBC1F8
S1130E700EF4E0950B2EBA2FA02D0B01B9019001B1
S1130E800C01CA01A0011124FF27591B99F0593FF5
S1130E9050F4503E68F11A16F040A22F232F342F3D
S1130EA04427585FF3CF469537952795A795F0408B
S1130EB05395C9F77EF41F16BA0B620B730B840BA0
S1130EC0BAF09150A1F0FF0FBB1F661F771F881F58
S1130ED0C2F70EC0BA0F621F731F841F48F48795B0
S1130EE077956795B795F7959E3F08F0B3CF93959F
S1130EF0880F08F09927EE0F97958795089532D1BA
S1130F0058F080E891E009F49EEF33D128F040E8EE
S1130F1051E059F45EEF09C0FDC065C1E92FE078E6
S1130F2040D168F3092E052AC1F32617370748076D
S1130F30590738F00E2E07F8E02569F0E025E06443
S1130F400AC0EF6307F8009407FADB01B9019D01B9
S1130F50DC01CA01AD01EF9341D012D10AD05F91F7
S1130F60552331F02BED3FE049E450FD49EC63CFCC
S1130F700895DF93DD27B92FBF7740E85FE31616A6
S1130F80170648075B0710F4D92F34D19F938F932A
S1130F907F936F93DBD1E4EEF0E0BFD0F1D02F91DB
S1130FA03F914F915F9139D1DD2349F09058A2EAE6
S1130FB02AED3FE049EC5FE3D0785D274DDFDF9118
S1130FC0DFC0D7D040F0CED030F021F45F3F19F02D
S1130FD09BC0511109C19EC0E4D098F39923C9F371
S1130FE05523B1F3951B550BBB27AA27621773072B
S1130FF0840738F09F5F5F4F220F331F441FAA1FDF
S1131000A9F333D00E2E3AF0E0E830D0915050409E
S1131010E695001CCAF729D0FE2F27D0660F771F4C
S1131020881FBB1F261737074807AB07B0E809F02E
S1131030BB0B802DBF01FF2793585F4F2AF09E3FC3
S1131040510568F061C0D0C05F3FECF3983EDCF31B
S1131050869577956795B795F7959F5FC9F7880F3C
S1131060911D9695879597F90895E1E0660F771F8E
S1131070881FBB1F621773078407BA0720F0621B1F
S1131080730B840BBA0BEE1F88F7E0950895E89470
S113109009C097FB3EF490958095709561957F4FBC
S11310A08F4F9F4F9923A9F0F92F96E9BB2793956A
S11310B0F695879577956795B795F111F8CFFAF47A
S11310C0BB0F11F460FF1BC06F5F7F4F8F4F9F4FAB
S11310D016C0882311F096E911C0772321F09EE809
S11310E0872F762F05C0662371F096E8862F70E06F
S11310F060E02AF09A95660F771F881FDAF7880F49
S11311009695879597F9089597F99F6780E870E019
S113111060E008959FEF80EC0895DF93CF931F93D1
S11311200F93FF92EF92DF927B018C01689405C0CC
S1131130DA2EEF0172D0FE01E894A5912591359144
S113114045915591AEF3EF0187DEFE019701A801A9
S1131150DA9479F7DF90EF90FF900F911F91CF9180
S1131160DF91089500240A94161617061806090636
S1131170089500240A941216130614060506089509
S1131180092E0394000C11F4882352F0BB0F40F491
S1131190BF2B11F460FF04C06F5F7F4F8F4F9F4FD1
S11311A0089557FD9058440F551F59F05F3F71F053
S11311B04795880F97FB991F61F09F3F79F08795BA
S11311C00895121613061406551FF2CF4695F1DF43
S11311D008C0161617061806991FF1CF86957105D3
S11311E0610508940895E894BB2766277727CB0107
S11311F097F908959B01AC0160E070E080E89FE3FB
S1131200A8C00BD0BDCFAEDF28F0B3DF18F0952314
S113121009F07ACF7FCF1124E7CFC3DFA0F3959FE6
S1131220D1F3950F50E0551F629FF001729FBB27C9
S1131230F00DB11D639FAA27F00DB11DAA1F649F75
S11312406627B00DA11D661F829F2227B00DA11D28
S1131250621F739FB00DA11D621F839FA00D611DAE
S1131260221F749F3327A00D611D231F849F600DCF
S1131270211D822F762F6A2F11249F5750408AF008
S1131280E1F088234AF0EE0FFF1FBB1F661F771F94
S1131290881F91505040A9F79E3F510570F034CFFC
S11312A0A3CF5F3FECF3983EDCF386957795679583
S11312B0B795F795E7959F5FC1F7FE2B880F911DB2
S11312C09695879597F9089511F40EF423CF43C0AA
S11312D070DFD0F39923D9F3CEF39F57550B87FFD3
S11312E048D00024A0E640EA90018058569597958E
S11312F028F4805C660F771F881F20F026173707B5
S1131300480730F4621B730B840B202931294A2BC4
S1131310A69517940794202531254A2758F7660F78
S1131320771F881F20F026173707480730F4620B11
S1131330730B840B200D311D411DA09581F7B9015C
S1131340842F9158880F9695879508959B01AC0139
S113135058CF42DE15CF9F3F31F0915020F487954E
S113136077956795B795880F911D9695879597F909
S1131370089591505040660F771F881FD2F7089543
S113138097FB072E16F4009406D077FD08D00BD0F7
S113139007FC05D03EF4909581959F4F0895709574
S11313A061957F4F0895AA1BBB1B51E107C0AA1F7B
S11313B0BB1FA617B70710F0A61BB70B881F991FF2
S11313C05A95A9F780959095BC01CD010895EF92A7
S11313D00F931F93CF93DF93E80147FD02C034E0DE
S11313E001C034E1042E000C550B57FF03C0519586
S11313F041955109E32E022F242FAE0107D0CE01CF
S1131400DF91CF911F910F91EF9008958F929F924A
S1131410AF92BF92CF92DF92EF92FF920F931F93FE
S1131420CF93DF93CDB7DEB729970FB6F894DEBF1D
S11314300FBECDBF6A01122FB02E2BE3201720F070
S1131440FF24F394F00E02C02CE3F22E0F2D27E0BC
S1131450AE014F5F5F4F50D1BC014981842F897029
S1131460813031F0E1FC06C0E0FE06C090E205C028
S11314709DE203C09BE201C090E05E2D507143FFEA
S11314803CC0911102C083E001C084E0811718F4CC
S1131490212F281B01C020E051110BC0F601822F1F
S11314A030E2882319F031938150FBCFC20ED11C56
S11314B020E0992329F0D6019C93F60131966F011F
S11314C0C6010396E2FE0AC03EE4D6013C9341E421
S11314D011964C93119712963C9306C03EE6F60182
S11314E0308341E641833283FC01322F40E23323CF
S11314F009F442C041933150FACF42FF44C09111E4
S113150002C083E001C084E0811718F4212F281B56
S113151001C020E051110BC0F601822F30E2882374
S113152019F031938150FBCFC20ED11C20E09923D6
S113153029F0D6019C93F60131966F01C6010396FA
S1131540E2FE0BC039E4D6013C933EE411963C9391
S1131550119736E412963C9307C039E6F6013083BE
S11315603EE6318336E63283FC01322F40E23323F8
S113157019F041933150FBCFFC01E20FF11D1082B1
S11315808EEF9FEFA6C021E030E0911102C020E071
S113159030E0161617061CF4FB01319602C0E1E098
S11315A0F0E02E0F3F1FBB2021F0EB2DF0E0319631
S11315B002C0E0E0F0E02E0F3F1FE12FF0E02E1715
S11315C03F071CF4121B212F01C020E08E2D8871CF
S11315D059F4F601822F30E2882319F031938150B7
S11315E0FBCFC20ED11C20E0992329F0D6019C9395
S11315F0F60131966F0151110BC0F601822F90E371
S1131600882319F091938150FBCFC20ED11C20E0A6
S11316100F2D060F9A81342F307144FF03C091338C
S113162009F40150101624F4093018F008E001C040
S113163001E0AB0177FF02C040E050E0FB01E41B96
S1131640F50BA1E0B0E0AC0FBD1FEA0FFB1F8EE26B
S1131650A82E4B01801A91080B2D10E011950195CD
S113166011094F3FBFEF5B0721F4D601AC921196ED
S11316706D01641775072CF08416950614F48181A6
S113168001C080E3415051093196D60111967D0184
S11316904017510724F0D6018C936701E2CF6417F9
S11316A0750739F4963320F4953319F4311101C0D8
S11316B081E3F6018083F701822F90E2882319F0F9
S11316C091938150FBCFF701E20FF11D108280E06E
S11316D090E029960FB6F894DEBF0FBECDBFDF9120
S11316E0CF911F910F91FF90EF90DF90CF90BF901B
S11316F0AF909F908F900895283008F027E033270B
S1131700DA01990F311D87FD91600096610571051D
S113171039F432602E5F3D9330E32A95E1F7089562
S11317209F3F30F080387105610509F03C5F3C5FF4
S11317303D93913008F08068911DDF93CF931F9300
S11317400F93FF92EF92192F987F9695E92F969514
S11317509695E90FFF27E459FE4F99273327EE2486
S1131760FF24A701E70105900894079428F4360F95
S1131770E71EF81E491F511D660F771F881F991F0A
S11317800694A1F70590079428F4E70EF81E491F64
S1131790561FC11D770F881F991F661F0694A1F756
S11317A00590079428F4F80E491F561FC71FD11D32
S11317B0880F991F661F771F0694A1F70590079459
S11317C020F4490F561FC71FD81F990F661F771F94
S11317D0881F0694A9F784911095177041F0D69547
S11317E0C79557954795F794E7941A95C1F7E2E1A1
S11317F0F1E0689415901591359165919591059056
S11318007FE27395E118F10A430B560BC90BD0091B
S1131810C0F7E10CF11E431F561FC91FD01D7EF4F3
S1131820703311F48A95E6CFE894015030F0080F34
S11318300AF40027021708F4202F2395022F7A3385
S113184028F079E37D932A95E9F710C07D932A95D2
S113185089F6069497956795379517951794E11827
S1131860F10A430B560BC90BD00998F023957E91CE
S113187073957A3308F070E37C932013B8F77E9164
S113188070617D9330F0839571E37D9370E32A95C5
S1131890E1F71124EF90FF900F911F91CF91DF9109
S10F18A0992787FD90950895F894FFCFD8
S11318AC80FF800080FF800080FF800080FF80002C
S11318BC80FF800080FF800080FF800080FF80001C
S11318CC80FF800080FF800080FF800080FF80000C
S11318DC80FF800080FF800080FF800080FF8000FC
S11118EC0178414D5000416E676C653A000072
S9030000FC
