:1000000008C2000026C2000024C2000022C2000074
:1000100020C200001EC200001CC200001AC2000064
:1000200018C2000016C2000014C2000012C2000074
:1000300010C200000EC200000CC200000AC2000084
:1000400008C2000006C2000004C2000002C2000094
:1000500000C2000029C40000FCC10000FAC1000079
:10006000F8C10000F6C10000F4C10000F2C10000B8
:10007000F0C1000057C40000ECC10000EAC100005C
:10008000E8C10000E6C10000E4C10000E2C10000D8
:10009000E0C10000DEC10000DCC10000DAC10000E8
:1000A000D8C10000D6C10000D4C10000D2C10000F8
:1000B000D0C10000CEC10000CCC10000CAC1000008
:1000C000C8C10000C6C10000C4C10000C2C1000018
:1000D000C0C10000BEC10000BCC10000BAC1000028
:1000E000B8C10000084AD73B3BCE016E84BCBFFDBF
:1000F000C12F3D6C74319ABD56833DDA3D00C77FF8
:1001000011BED9E4BB4C3E916BAAAABE0000008090
:100110003F00000000000000000000005F00000041
:100120000000000007000700000000147F147F1487
:10013000000000242A7F2A120000002313086462B2
:100140000000003649552250000000000503000061
:100150000000001C2241000000000041221C0000A1
:10016000000000082A1C2A0800000008083E0808B1
:10017000000000A060000000000000080808080857
:100180000000006060000000000000201008040271
:100190000000003E5149453E00000000427F400003
:1001A0000000006251494946000000224149493699
:1001B0000000001814127F10000000274545453943
:1001C0000000003C4A494930000000017109050364
:1001D0000000003649494936000000064949291EF9
:1001E000000000003636000000000000AC6C00008B
:1001F000000000081422410000000014141414141C
:10020000000000412214080000000002015109060C
:10021000000000324979413E0000007E0909097E54
:100220000000007F494949360000003E414141221B
:100230000000007F4141221C0000007F49494941E4
:100240000000007F090909010000003E4141517290
:100250000000007F0808087F000000417F41000087
:100260000000002040413F010000007F08142241AF
:100270000000007F404040400000007F020C027FF1
:100280000000007F0408107F0000003E4141413E15
:100290000000007F090909060000003E4151215E6F
:1002A0000000007F0919294600000026494949320B
:1002B00000000001017F01010000003F4040403F7D
:1002C0000000001F2040201F0000003F4038403F3A
:1002D00000000063140814630000000304780403A2
:1002E00000000061514945430000007F414100008A
:1002F000000000020408102000000041417F0000BF
:100300000000000402010204000000808080808060
:100310000000000102040000000000205454547842
:100320000000007F4844443800000038444428005E
:10033000000000384444487F0000003854545418EA
:10034000000000087E09020000000018A4A4A47C9C
:100350000000007F08040478000000007D00000019
:1003600000000080847D00000000007F1028440011
:10037000000000417F4000000000007C0418047869
:100380000000007C08047C00000000384444380071
:10039000000000FC24241800000000182424FC00A5
:1003A000000000007C0804000000004854542400B1
:1003B000000000047F4400000000003C40407C003E
:1003C0000000001C2040201C0000003C4030403C4D
:1003D00000000044281028440000001CA0A07C005D
:1003E0000000004464544C44000000083641000002
:1003F000000000007F0000000000004136080000FF
:1004000000000002010102010000000205050200D7
:10041000000011241FBECFEFD1E2DEBFCDBF00E050
:100420000CBF12E0A0E0B2E0E2E3F8E100E00BBFB5
:1004300002C007900D92A231B107D9F722E0A2E1E4
:10044000B2E001C01D92A23CB207E1F78AD10C9440
:10045000170CD6CDEAE7F0E0908194609083ACE78A
:10046000B0E09C9190629C93AEE7B0E09C9191606B
:100470009C93ABE7B0E09C9193609C9390819062D9
:100480009083908190689083882319F080818860A0
:1004900080830895EF92FF920F931F93CF93DF9382
:1004A000FB019C01220F331F220F331F820F931F6A
:1004B0006FEF70E0ABD6C0E3C60FC0832EE221839E
:1004C000AC01440F551F440F551F480F591F9A0187
:1004D000A1E8B0E8AED67C01EE0CEF2CEE1CFF08D4
:1004E000F194D0E3DE0DD2830FEF0E9DC0010F9D7E
:1004F000900D1124481B590BCA01880F991F880FB2
:10050000991F480F591F9A0194D67C01EE0CEF2CCD
:10051000EE1CFF08F19410E31E0D13830E9DC00125
:100520000F9D900D1124481B590B4F3F510510F0A2
:100530001F5F138383818A3349F480E38383DF5F02
:10054000D283DA3319F48283CF5FC083DF91CF91F6
:100550001F910F91FF90EF90089581B1816081B953
:1005600082B1816082B92FEF83ED90E3215080400A
:100570009040E1F700C0000082E18093B800E9EB11
:10058000F0E080818C7F808385E08093BC000895BB
:1005900094EA9093BC009091BC009923E4F7909169
:1005A000B900987F983091F48093BB0084E88093E1
:1005B000BC008091BC008823E4F78091B900887F5B
:1005C000883131F0803231F482E0089580E008957E
:1005D00081E0089583E008958093BB0084E88093D0
:1005E000BC008091BC008823E4F78091B900887F2B
:1005F000883221F0803321F481E0089580E008956D
:1006000082E0089584E98093BC008091BC0084FD61
:10061000FCCF089520E030E03EC080911B02813085
:1006200099F028F08230E9F0833041F132C091E056
:10063000F901E45AFD4F9083F901E45EFD4F108209
:100640008F5F80931B0225C0F901E45AFD4F108291
:1006500091E0F901E45EFD4F90838F5F80931B0270
:1006600018C09FEFF901E45AFD4F9083F901E45E51
:10067000FD4F10828F5F80931B020BC0F901E45A7B
:10068000FD4F10828FEFF901E45EFD4F80831092E1
:100690001B022F5F3F4F203431050CF4BECF08956D
:1006A000789484B1806484B984B1806284B985B15E
:1006B0008F7D85B985B18F7B85B988E780930202EC
:1006C0004CDFE6D179D236D240E050E061E070E014
:1006D00083E092E043D240E050E062E070E087E0E7
:1006E00092E03CD2AAD296CF0895EF92FF920F9358
:1006F0001F93CF93DF93CDB7DEB7C456D1090FB6A2
:10070000F894DEBF0FBECDBFF62EE42E8E010F5F34
:100710001F4F94E6F80111929A95E9F71F928F9373
:100720008EE092E09F938F931F930F93A5D54E2D4C
:1007300050E06F2D70E0C80111D20F900F900F9014
:100740000F900F900F90CC59DF4F0FB6F894DEBF8B
:100750000FBECDBFDF91CF911F910F91FF90EF9012
:1007600008959EDF809100028130E1F78091AD0213
:100770008130C1F780911602909117028230910565
:1007800009F08AC06091180270911902072E000CBE
:10079000880B990BC4D326E636E646E65FE377D4AA
:1007A0006B017C018091010290E0880F991FFC0190
:1007B000E356FD4F20813181229FA001239F500DE0
:1007C000500D1124FC01EF55FD4F20813181229FF6
:1007D000C001239F900D900D1124840F951F4C0193
:1007E000990FAA08BB08C501B40199D3B7D42DEC61
:1007F0003CEC4CEC5DE34BD49B01AC01C701B60172
:100800002FD25AD3862F609318027093190247E0B3
:1008100061E06BDF8091010290E0880F991FFC017D
:10082000EF55FD4F60817181FC01E356FD4FC081A2
:10083000D181072E000C880B990B71D36B017C01C1
:10084000BE01DD0F880B990B6AD3A70196017BD2FD
:1008500020EE3EE245E652E41AD433D3862F60936D
:100860001A0247E062E041DF10921702109216026E
:1008700047E064E08091A70238DF62E172E0809196
:10088000A9029091AA0206DE47E050E063E070E022
:1008900082E192E063D105C00196909317028093A4
:1008A00016021092AD025ECF1F920F920FB60F92FA
:1008B00011240BB60F922F933F934F935F936F9337
:1008C0007F938F939F93AF93BF93EF93FF93809109
:1008D000AC02833021F08F5F8093AC0210C0109285
:1008E000AC0295B180E4892785B92E9908C0809122
:1008F000AB02811104C081E08093AB02ABDDFF91BC
:10090000EF91BF91AF919F918F917F916F915F9187
:100910004F913F912F910F900BBE0F900FBE0F90F4
:100920001F9018951F920F920FB60F9211240BB6BD
:100930000F920F931F932F933F934F935F936F9358
:100940007F938F939F93AF93BF93CF93DF93EF9357
:10095000FF938091790090E09093AA028093A9027E
:1009600095B180E2892785B92091A5023091A60230
:10097000203431050CF044C0E0919C02F0E0EE0F11
:10098000FF1FEF01CF55DD4F088119818091A9022A
:100990009091AA02AC01440F551F440F551F840FBC
:1009A000951F6FEF70E032D4D901A45ABD4F4C911E
:1009B000469FC001479F900D1124800F911F99837E
:1009C0008883E356FD4F40815181D901A45EBD4F1C
:1009D000AC91A69FC001A79F900D1124840F951F75
:1009E000919581959109918380837093A80260937A
:1009F000A7022F5F3F4F3093A6022093A50225C088
:100A00008091010290E0880F991FFC01EF55FD4F86
:100A100011821082FC01E356FD4F118210828091F9
:100A20009C02811106C081E080939C021092010219
:100A300005C010929C0281E08093010281E08093C6
:100A4000AD021092A6021092A502FF91EF91DF91E4
:100A5000CF91BF91AF919F918F917F916F915F9156
:100A60004F913F912F911F910F910F900BBE0F90BF
:100A70000FBE0F901F901895CF93C82F8091020240
:100A800087DD80E0A9DD8C2FA7DDBCDDCF91089547
:100A90008EEAF2DF85EDF0DF80E8EEDF88EAECDF5A
:100AA0008FE3EADF83EDE8DF80E0E6DF80E4E4DF88
:100AB0008DE8E2DF84E1E0DF80E2DEDF80E0DCDFA2
:100AC00081EADADF88ECD8DF8AEDD6DF82E1D4DF95
:100AD00081E8D2DF8FECD0DF89EDCEDF81EFCCDF94
:100AE0008BEDCADF80E4C8DF84EAC6DF86EAC4DFB4
:100AF0008FEAC2CF0895CF93C82F8091020248DDBC
:100B000080E46ADD8C2F68DD7DDDCF910895CF9381
:100B1000C62F8055B1DF8C2F880F880F880F887003
:100B2000ABDF8C2F90E0969587958F70805FA4DF68
:100B3000CF910895CF93DF93D0E00BC060E08D2F6D
:100B4000E6DFC0E003C080E0D6DFCF5FCC23DCF778
:100B5000DF5FD83098F3DF91CF9108950F931F9303
:100B6000CF93DF93EC01862F062F642FD0DF1CC0BC
:100B70008A3029F460E081E0800FC9DF219610E01F
:100B800010C0E881F0E0B097EE0FFF1FEE0FFF1FDF
:100B9000EE0FFF1FEE5EFE4FE10FF11D8491ABDF04
:100BA0001F5F183070F3219688818111E1CFDF91AA
:100BB000CF911F910F910895DF92EF92FF920F93C3
:100BC0001F93CF93DF93B6DFE12CF12C6894DD24E3
:100BD000D5F827C060E08E2D9ADF00E010E019C044
:100BE000F801ED0DF11DB097EE0FFF1FEE0FFF1F87
:100BF000EE0FFF1FEE5EFE4FEC0FFD1F84917BDFBB
:100C0000219602C0C0E0D0E0C830D1054CF30F5FA0
:100C10001F4F00311105B4F380E1D80E8FEFE81AB1
:100C2000F80A86E0E816F104ACF2DF91CF911F914B
:100C30000F91FF90EF90DF90089584B1806884B9A0
:100C400084B5826484BD85B5826085BD16BC8CE7A1
:100C500087BDEEE6F0E08081826080830895505881
:100C6000BB27AA270ED0D2C1C3D130F0C8D120F003
:100C700031F49F3F11F41EF493C10EF4E095E7FBAD
:100C800089C1E92FD4D180F3BA17620773078407AB
:100C9000950718F071F49EF5ECC10EF4E0950B2E5B
:100CA000BA2FA02D0B01B90190010C01CA01A001BE
:100CB0001124FF27591B99F0593F50F4503E68F119
:100CC0001A16F040A22F232F342F4427585FF3CF5A
:100CD000469537952795A795F0405395C9F77EF42B
:100CE0001F16BA0B620B730B840BBAF09150A1F074
:100CF000FF0FBB1F661F771F881FC2F70EC0BA0FFA
:100D0000621F731F841F48F4879577956795B79581
:100D1000F7959E3F08F0B3CF9395880F08F0992779
:100D2000EE0F97958795089563D158F080E891E08C
:100D300009F49EEF64D128F040E851E059F45EEFE9
:100D400009C02EC196C1E92FE07871D168F3092E50
:100D5000052AC1F3261737074807590738F00E2E22
:100D600007F8E02569F0E025E0640AC0EF6307F8C2
:100D7000009407FADB01B9019D01DC01CA01AD0154
:100D8000EF9341D043D10AD05F91552331F02BED41
:100D90003FE049E450FD49EC63CF0895DF93DD2740
:100DA000B92FBF7740E85FE31616170648075B07C1
:100DB00010F4D92F65D19F938F937F936F930CD2AB
:100DC000E4EEF0E0F0D022D12F913F914F915F916E
:100DD0006AD1DD2349F09058A2EA2AED3FE049ECC0
:100DE0005FE3D0785D274DDFDF9110C108D140F07F
:100DF000FFD030F021F45F3F19F0CCC051113AC15F
:100E0000CFC015D198F39923C9F35523B1F3951B9E
:100E1000550BBB27AA2762177307840738F09F5F1B
:100E20005F4F220F331F441FAA1FA9F333D00E2E8A
:100E30003AF0E0E830D091505040E695001CCAF7F7
:100E400029D0FE2F27D0660F771F881FBB1F2617BC
:100E500037074807AB07B0E809F0BB0B802DBF018F
:100E6000FF2793585F4F2AF09E3F510568F092C0CC
:100E700001C15F3FECF3983EDCF38695779567956B
:100E8000B795F7959F5FC9F7880F911D9695879540
:100E900097F90895E1E0660F771F881FBB1F62175F
:100EA00073078407BA0720F0621B730B840BBA0B1D
:100EB000EE1F88F7E095089504D06894B111DAC068
:100EC0000895BDD088F09F5790F0B92F9927B7515A
:100ED000A0F0D1F0660F771F881F991F1AF0BA95FE
:100EE000C9F712C0B13081F0C4D0B1E00895C1C0DB
:100EF000672F782F8827B85F39F0B93FCCF38695F4
:100F000077956795B395D9F73EF490958095709550
:100F100061957F4F8F4F9F4F0895E89409C097FBCD
:100F20003EF490958095709561957F4F8F4F9F4FC0
:100F30009923A9F0F92F96E9BB279395F695879504
:100F400077956795B795F111F8CFFAF4BB0F11F4C7
:100F500060FF1BC06F5F7F4F8F4F9F4F16C088236E
:100F600011F096E911C0772321F09EE8872F762FA4
:100F700005C0662371F096E8862F70E060E02AF0E5
:100F80009A95660F771F881FDAF7880F96958795D1
:100F900097F9089597F99F6780E870E060E00895F9
:100FA0009FEF80EC0895DF93CF931F930F93FF92F1
:100FB000EF92DF927B018C01689405C0DA2EEF017D
:100FC00072D0FE01E894A5912591359145915591F6
:100FD000AEF3EF0156DEFE019701A801DA9479F72E
:100FE000DF90EF90FF900F911F91CF91DF910895C7
:100FF00000240A94161617061806090608950024F8
:101000000A9412161306140605060895092E039471
:10101000000C11F4882352F0BB0F40F4BF2B11F4E5
:1010200060FF04C06F5F7F4F8F4F9F4F089557FD44
:101030009058440F551F59F05F3F71F04795880F46
:1010400097FB991F61F09F3F79F0879508951216DD
:1010500013061406551FF2CF4695F1DF08C0161689
:1010600017061806991FF1CF86957105610508943A
:101070000895E894BB2766277727CB0197F9089551
:101080009B01AC0160E070E080E89FE3A8C00BD05A
:10109000BDCFAEDF28F0B3DF18F0952309F07ACF8B
:1010A0007FCF1124E7CFC3DFA0F3959FD1F3950F36
:1010B00050E0551F629FF001729FBB27F00DB11DDC
:1010C000639FAA27F00DB11DAA1F649F6627B00D6C
:1010D000A11D661F829F2227B00DA11D621F739F55
:1010E000B00DA11D621F839FA00D611D221F749F63
:1010F0003327A00D611D231F849F600D211D822FAA
:10110000762F6A2F11249F5750408AF0E1F08823F0
:101110004AF0EE0FFF1FBB1F661F771F881F9150FD
:101120005040A9F79E3F510570F034CFA3CF5F3FE9
:10113000ECF3983EDCF3869577956795B795F79530
:10114000E7959F5FC1F7FE2B880F911D96958795B8
:1011500097F9089511F40EF423CF43C070DFD0F354
:101160009923D9F3CEF39F57550B87FF48D000241E
:10117000A0E640EA900180585695979528F4805C47
:10118000660F771F881F20F026173707480730F4AF
:10119000621B730B840B202931294A2BA6951794C7
:1011A0000794202531254A2758F7660F771F881F97
:1011B00020F026173707480730F4620B730B840BB7
:1011C000200D311D411DA09581F7B901842F915843
:1011D000880F9695879508959B01AC0158CF11DE35
:1011E00015CF9F3F31F0915020F487957795679503
:1011F000B795880F911D9695879597F90895915009
:101200005040660F771F881FD2F7089597FB072E6F
:1012100016F4009406D077FD08D01AD007FC05D04C
:101220003EF4909581959F4F0895709561957F4FFD
:101230000895A29FB001B39FC001A39F700D811DAF
:101240001124911DB29F700D811D1124911D0895CF
:10125000AA1BBB1B51E107C0AA1FBB1FA617B707DC
:1012600010F0A61BB70B881F991F5A95A9F78095F8
:101270009095BC01CD0108950F931F93CF93DF93F9
:10128000CDB7DEB72E970FB6F894DEBF0FBECDBF39
:101290000E891F8986E08C831A8309838FEF9FE76D
:1012A0009E838D83AE01465E5F4F688D798DCE0142
:1012B000019610D0EF81F885E00FF11F10822E9675
:1012C0000FB6F894DEBF0FBECDBFDF91CF911F9157
:1012D0000F9108952F923F924F925F926F927F925B
:1012E0008F929F92AF92BF92CF92DF92EF92FF9236
:1012F0000F931F93CF93DF93CDB7DEB72B970FB626
:10130000F894DEBF0FBECDBF6C017B018A01FC01EA
:1013100017821682838181FFBFC1CE0101963C01F5
:10132000F6019381F70193FD859193FF81917F01F0
:10133000882309F4ADC1853239F493FD859193FF7B
:1013400081917F01853221F4B60190E0D6D1E8CFBA
:10135000912C212C312CFFE1F315D8F08B3279F050
:1013600038F4803279F08332A1F4232D20611DC03E
:101370008D3261F0803369F4232D216016C0832DF6
:101380008260382EE32DE4603E2E2AC0F32DF860F3
:101390001DC037FC2DC020ED280F2A3040F08E32C2
:1013A000B9F436FC75C1232D2064322E19C036FEE7
:1013B00006C08AE0989E200D1124922E11C0EAE00A
:1013C0002E9E200D1124222EF32DF0623F2E08C0F8
:1013D0008C3621F4832D8068382E02C0883641F483
:1013E000F70193FD859193FF81917F018111B3CF27
:1013F000982F9F7D9554933028F40C5F1F4F9FE3E7
:1014000099830DC0833631F0833771F0833509F04D
:1014100055C020C0F801808189830E5F1F4F88244A
:101420008394912C530112C02801F2E04F0E511CFD
:10143000F801A080B18036FE03C0692D70E002C0C3
:101440006FEF7FEFC5014ED14C018201F32DFF7785
:101450003F2E15C0280122E0420E511CF801A08049
:10146000B18036FE03C0692D70E002C06FEF7FEFE0
:10147000C5012DD14C01F32DF0683F2E820133FCC4
:1014800019C0822D90E088169906A0F4B60180E27A
:1014900090E033D12A94F5CFF50137FC859137FEE2
:1014A00081915F01B60190E028D121102A9421E0BA
:1014B000821A91088114910479F7E1C0843611F001
:1014C000893639F5F80137FE07C060817181828164
:1014D00093810C5F1F4F08C060817181072E000C43
:1014E000880B990B0E5F1F4FF32DFF763F2E97FF52
:1014F00009C090958095709561957F4F8F4F9F4F54
:10150000F0683F2E2AE030E0A30133D1882E861800
:1015100044C0853731F4232D2F7EB22E2AE030E0EF
:1015200025C0932D997FB92E8F36C1F018F48835D8
:1015300079F0AEC0803719F0883721F0A9C0E92FC3
:10154000E061BE2EB4FE0DC0FB2DF460BF2E09C0BD
:1015500034FE0AC0292F2660B22E06C028E030E0F3
:1015600005C020E130E002C020E132E0F801B7FE22
:1015700007C060817181828193810C5F1F4F06C01B
:101580006081718180E090E00E5F1F4FA301F1D078
:10159000882E8618FB2DFF773F2E36FE0DC0232D9B
:1015A0002E7FA22E891458F434FE0BC032FC09C0E1
:1015B000832D8E7EA82E05C0B82CA32C03C0B82C7A
:1015C00001C0B92CA4FE0FC0FE01E80DF11D808101
:1015D000803321F49A2D997EA92E09C0A2FE06C05F
:1015E000B394B39404C08A2D867809F0B394A3FC15
:1015F00010C0A0FE06C0B21480F4280C922C9B18D8
:101600000DC0B21458F4B60180E290E076D0B394E5
:10161000F8CFB21418F42B1802C0982C212CA4FE79
:101620000FC0B60180E390E068D0A2FE16C0A1FC16
:1016300003C088E790E002C088E590E0B6010CC0E6
:101640008A2D867851F0A1FE02C08BE201C080E2B3
:10165000A7FC8DE2B60190E050D0891430F4B601B9
:1016600080E390E04AD09A94F8CF8A94F301E80D91
:10167000F11D8081B60190E040D08110F6CF22208C
:1016800009F44ECEB60180E290E037D02A94F7CF2D
:10169000F6018681978102C08FEF9FEF2B960FB6E0
:1016A000F894DEBF0FBECDBFDF91CF911F910F9198
:1016B000FF90EF90DF90CF90BF90AF909F908F9072
:1016C0007F906F905F904F903F902F900895FC0116
:1016D0000590615070400110D8F7809590958E0F5D
:1016E0009F1F0895FC016150704001900110D8F7D0
:1016F000809590958E0F9F1F08950F931F93CF9302
:10170000DF93FB01238121FD03C08FEF9FEF2CC0EE
:1017100022FF16C046815781248135814217530725
:1017200044F4A081B1819D012F5F3F4F318320831D
:101730008C93268137812F5F3F4F3783268314C0D8
:101740008B01EC01FB010084F185E02D1995892BBB
:10175000E1F6D80116968D919C91179701961796F0
:101760009C938E931697CE01DF91CF911F910F918D
:101770000895FA01AA27283051F1203181F1E89427
:101780006F936E7F6E5F7F4F8F4F9F4FAF4FB1E074
:101790003ED0B4E03CD0670F781F891F9A1FA11D6F
:1017A000680F791F8A1F911DA11D6A0F711D811D70
:1017B000911DA11D20D009F468943F912AE0269F35
:1017C00011243019305D3193DEF6CF010895462F94
:1017D0004770405D4193B3E00FD0C9F7F6CF462F75
:1017E0004F70405D4A3318F0495D31FD40524193DE
:1017F00002D0A9F7EACFB4E0A6959795879577959B
:101800006795BA95C9F700976105710508959B0121
:10181000AC010A2E06945795479537952795BA95AA
:10182000C9F7620F731F841F951FA01D0895F894B8
:02183000FFCFE8
:10183200010178414D5000416E676C653A00257593
:021842000000A4
:00000001FF
